{
  "_format": "hh-sol-artifact-1",
  "contractName": "FungibleToken",
  "sourceName": "src/contracts/FungibleToken.sol",
  "abi": [
    {
      "inputs": [
        {
          "internalType": "string",
          "name": "name_",
          "type": "string"
        },
        {
          "internalType": "string",
          "name": "symbol_",
          "type": "string"
        },
        {
          "internalType": "uint256",
          "name": "initialSupply",
          "type": "uint256"
        },
        {
          "internalType": "uint8",
          "name": "decimals_",
          "type": "uint8"
        },
        {
          "internalType": "uint256",
          "name": "maxSupply_",
          "type": "uint256"
        }
      ],
      "stateMutability": "nonpayable",
      "type": "constructor"
    },
    {
      "inputs": [
        {
          "internalType": "address",
          "name": "spender",
          "type": "address"
        },
        {
          "internalType": "uint256",
          "name": "allowance",
          "type": "uint256"
        },
        {
          "internalType": "uint256",
          "name": "needed",
          "type": "uint256"
        }
      ],
      "name": "ERC20InsufficientAllowance",
      "type": "error"
    },
    {
      "inputs": [
        {
          "internalType": "address",
          "name": "sender",
          "type": "address"
        },
        {
          "internalType": "uint256",
          "name": "balance",
          "type": "uint256"
        },
        {
          "internalType": "uint256",
          "name": "needed",
          "type": "uint256"
        }
      ],
      "name": "ERC20InsufficientBalance",
      "type": "error"
    },
    {
      "inputs": [
        {
          "internalType": "address",
          "name": "approver",
          "type": "address"
        }
      ],
      "name": "ERC20InvalidApprover",
      "type": "error"
    },
    {
      "inputs": [
        {
          "internalType": "address",
          "name": "receiver",
          "type": "address"
        }
      ],
      "name": "ERC20InvalidReceiver",
      "type": "error"
    },
    {
      "inputs": [
        {
          "internalType": "address",
          "name": "sender",
          "type": "address"
        }
      ],
      "name": "ERC20InvalidSender",
      "type": "error"
    },
    {
      "inputs": [
        {
          "internalType": "address",
          "name": "spender",
          "type": "address"
        }
      ],
      "name": "ERC20InvalidSpender",
      "type": "error"
    },
    {
      "inputs": [
        {
          "internalType": "address",
          "name": "owner",
          "type": "address"
        }
      ],
      "name": "OwnableInvalidOwner",
      "type": "error"
    },
    {
      "inputs": [
        {
          "internalType": "address",
          "name": "account",
          "type": "address"
        }
      ],
      "name": "OwnableUnauthorizedAccount",
      "type": "error"
    },
    {
      "anonymous": false,
      "inputs": [
        {
          "indexed": true,
          "internalType": "address",
          "name": "owner",
          "type": "address"
        },
        {
          "indexed": true,
          "internalType": "address",
          "name": "spender",
          "type": "address"
        },
        {
          "indexed": false,
          "internalType": "uint256",
          "name": "value",
          "type": "uint256"
        }
      ],
      "name": "Approval",
      "type": "event"
    },
    {
      "anonymous": false,
      "inputs": [
        {
          "indexed": true,
          "internalType": "address",
          "name": "previousOwner",
          "type": "address"
        },
        {
          "indexed": true,
          "internalType": "address",
          "name": "newOwner",
          "type": "address"
        }
      ],
      "name": "OwnershipTransferred",
      "type": "event"
    },
    {
      "anonymous": false,
      "inputs": [
        {
          "indexed": true,
          "internalType": "address",
          "name": "from",
          "type": "address"
        },
        {
          "indexed": false,
          "internalType": "uint256",
          "name": "amount",
          "type": "uint256"
        }
      ],
      "name": "TokenBurned",
      "type": "event"
    },
    {
      "anonymous": false,
      "inputs": [
        {
          "indexed": true,
          "internalType": "address",
          "name": "to",
          "type": "address"
        },
        {
          "indexed": false,
          "internalType": "uint256",
          "name": "amount",
          "type": "uint256"
        }
      ],
      "name": "TokenMinted",
      "type": "event"
    },
    {
      "anonymous": false,
      "inputs": [
        {
          "indexed": true,
          "internalType": "address",
          "name": "from",
          "type": "address"
        },
        {
          "indexed": true,
          "internalType": "address",
          "name": "to",
          "type": "address"
        },
        {
          "indexed": false,
          "internalType": "uint256",
          "name": "value",
          "type": "uint256"
        }
      ],
      "name": "Transfer",
      "type": "event"
    },
    {
      "inputs": [],
      "name": "MAX_SUPPLY",
      "outputs": [
        {
          "internalType": "uint256",
          "name": "",
          "type": "uint256"
        }
      ],
      "stateMutability": "view",
      "type": "function"
    },
    {
      "inputs": [
        {
          "internalType": "address",
          "name": "owner",
          "type": "address"
        },
        {
          "internalType": "address",
          "name": "spender",
          "type": "address"
        }
      ],
      "name": "allowance",
      "outputs": [
        {
          "internalType": "uint256",
          "name": "",
          "type": "uint256"
        }
      ],
      "stateMutability": "view",
      "type": "function"
    },
    {
      "inputs": [
        {
          "internalType": "address",
          "name": "spender",
          "type": "address"
        },
        {
          "internalType": "uint256",
          "name": "value",
          "type": "uint256"
        }
      ],
      "name": "approve",
      "outputs": [
        {
          "internalType": "bool",
          "name": "",
          "type": "bool"
        }
      ],
      "stateMutability": "nonpayable",
      "type": "function"
    },
    {
      "inputs": [
        {
          "internalType": "address",
          "name": "account",
          "type": "address"
        }
      ],
      "name": "balanceOf",
      "outputs": [
        {
          "internalType": "uint256",
          "name": "",
          "type": "uint256"
        }
      ],
      "stateMutability": "view",
      "type": "function"
    },
    {
      "inputs": [
        {
          "internalType": "uint256",
          "name": "amount",
          "type": "uint256"
        }
      ],
      "name": "burn",
      "outputs": [],
      "stateMutability": "nonpayable",
      "type": "function"
    },
    {
      "inputs": [
        {
          "internalType": "address",
          "name": "account",
          "type": "address"
        },
        {
          "internalType": "uint256",
          "name": "value",
          "type": "uint256"
        }
      ],
      "name": "burnFrom",
      "outputs": [],
      "stateMutability": "nonpayable",
      "type": "function"
    },
    {
      "inputs": [],
      "name": "chain",
      "outputs": [
        {
          "internalType": "string",
          "name": "",
          "type": "string"
        }
      ],
      "stateMutability": "view",
      "type": "function"
    },
    {
      "inputs": [],
      "name": "decimals",
      "outputs": [
        {
          "internalType": "uint8",
          "name": "",
          "type": "uint8"
        }
      ],
      "stateMutability": "view",
      "type": "function"
    },
    {
      "inputs": [
        {
          "internalType": "address",
          "name": "to",
          "type": "address"
        },
        {
          "internalType": "uint256",
          "name": "amount",
          "type": "uint256"
        }
      ],
      "name": "mint",
      "outputs": [],
      "stateMutability": "nonpayable",
      "type": "function"
    },
    {
      "inputs": [],
      "name": "name",
      "outputs": [
        {
          "internalType": "string",
          "name": "",
          "type": "string"
        }
      ],
      "stateMutability": "view",
      "type": "function"
    },
    {
      "inputs": [],
      "name": "owner",
      "outputs": [
        {
          "internalType": "address",
          "name": "",
          "type": "address"
        }
      ],
      "stateMutability": "view",
      "type": "function"
    },
    {
      "inputs": [],
      "name": "renounceOwnership",
      "outputs": [],
      "stateMutability": "nonpayable",
      "type": "function"
    },
    {
      "inputs": [],
      "name": "symbol",
      "outputs": [
        {
          "internalType": "string",
          "name": "",
          "type": "string"
        }
      ],
      "stateMutability": "view",
      "type": "function"
    },
    {
      "inputs": [],
      "name": "totalSupply",
      "outputs": [
        {
          "internalType": "uint256",
          "name": "",
          "type": "uint256"
        }
      ],
      "stateMutability": "view",
      "type": "function"
    },
    {
      "inputs": [
        {
          "internalType": "address",
          "name": "to",
          "type": "address"
        },
        {
          "internalType": "uint256",
          "name": "amount",
          "type": "uint256"
        }
      ],
      "name": "transfer",
      "outputs": [
        {
          "internalType": "bool",
          "name": "",
          "type": "bool"
        }
      ],
      "stateMutability": "nonpayable",
      "type": "function"
    },
    {
      "inputs": [
        {
          "internalType": "address",
          "name": "from",
          "type": "address"
        },
        {
          "internalType": "address",
          "name": "to",
          "type": "address"
        },
        {
          "internalType": "uint256",
          "name": "value",
          "type": "uint256"
        }
      ],
      "name": "transferFrom",
      "outputs": [
        {
          "internalType": "bool",
          "name": "",
          "type": "bool"
        }
      ],
      "stateMutability": "nonpayable",
      "type": "function"
    },
    {
      "inputs": [
        {
          "internalType": "address",
          "name": "newOwner",
          "type": "address"
        }
      ],
      "name": "transferOwnership",
      "outputs": [],
      "stateMutability": "nonpayable",
      "type": "function"
    },
    {
      "inputs": [],
      "name": "version",
      "outputs": [
        {
          "internalType": "string",
          "name": "",
          "type": "string"
        }
      ],
      "stateMutability": "view",
      "type": "function"
    }
  ],
  "bytecode": "0x60c060405234801561001057600080fd5b506040516127c33803806127c3833981810160405281019061003291906106eb565b338585816003908161004491906109b5565b50806004908161005491906109b5565b505050600073ffffffffffffffffffffffffffffffffffffffff168173ffffffffffffffffffffffffffffffffffffffff16036100c95760006040517f1e4fbdf70000000000000000000000000000000000000000000000000000000081526004016100c09190610ac8565b60405180910390fd5b6100d88161019460201b60201c565b508160ff1660808160ff1681525050608051600a6100f69190610c45565b816101019190610c90565b60a0818152505081600a6101159190610c45565b836101209190610c90565b600660003373ffffffffffffffffffffffffffffffffffffffff1673ffffffffffffffffffffffffffffffffffffffff1681526020019081526020016000208190555061018a3383600a6101749190610c45565b8561017f9190610c90565b61025a60201b60201c565b5050505050610d67565b6000600560009054906101000a900473ffffffffffffffffffffffffffffffffffffffff16905081600560006101000a81548173ffffffffffffffffffffffffffffffffffffffff021916908373ffffffffffffffffffffffffffffffffffffffff1602179055508173ffffffffffffffffffffffffffffffffffffffff168173ffffffffffffffffffffffffffffffffffffffff167f8be0079c531659141344cd1fd0a4f28419497f9722a3daafe3b4186f6b6457e060405160405180910390a35050565b600073ffffffffffffffffffffffffffffffffffffffff168273ffffffffffffffffffffffffffffffffffffffff16036102cc5760006040517fec442f050000000000000000000000000000000000000000000000000000000081526004016102c39190610ac8565b60405180910390fd5b6102de600083836102e260201b60201c565b5050565b600073ffffffffffffffffffffffffffffffffffffffff168373ffffffffffffffffffffffffffffffffffffffff16036103345780600260008282546103289190610cd2565b92505081905550610407565b60008060008573ffffffffffffffffffffffffffffffffffffffff1673ffffffffffffffffffffffffffffffffffffffff168152602001908152602001600020549050818110156103c0578381836040517fe450d38c0000000000000000000000000000000000000000000000000000000081526004016103b793929190610d15565b60405180910390fd5b8181036000808673ffffffffffffffffffffffffffffffffffffffff1673ffffffffffffffffffffffffffffffffffffffff16815260200190815260200160002081905550505b600073ffffffffffffffffffffffffffffffffffffffff168273ffffffffffffffffffffffffffffffffffffffff1603610450578060026000828254039250508190555061049d565b806000808473ffffffffffffffffffffffffffffffffffffffff1673ffffffffffffffffffffffffffffffffffffffff168152602001908152602001600020600082825401925050819055505b8173ffffffffffffffffffffffffffffffffffffffff168373ffffffffffffffffffffffffffffffffffffffff167fddf252ad1be2c89b69c2b068fc378daa952ba7f163c4a11628f55a4df523b3ef836040516104fa9190610d4c565b60405180910390a3505050565b6000604051905090565b600080fd5b600080fd5b600080fd5b600080fd5b6000601f19601f8301169050919050565b7f4e487b7100000000000000000000000000000000000000000000000000000000600052604160045260246000fd5b61056e82610525565b810181811067ffffffffffffffff8211171561058d5761058c610536565b5b80604052505050565b60006105a0610507565b90506105ac8282610565565b919050565b600067ffffffffffffffff8211156105cc576105cb610536565b5b6105d582610525565b9050602081019050919050565b60005b838110156106005780820151818401526020810190506105e5565b60008484015250505050565b600061061f61061a846105b1565b610596565b90508281526020810184848401111561063b5761063a610520565b5b6106468482856105e2565b509392505050565b600082601f8301126106635761066261051b565b5b815161067384826020860161060c565b91505092915050565b6000819050919050565b61068f8161067c565b811461069a57600080fd5b50565b6000815190506106ac81610686565b92915050565b600060ff82169050919050565b6106c8816106b2565b81146106d357600080fd5b50565b6000815190506106e5816106bf565b92915050565b600080600080600060a0868803121561070757610706610511565b5b600086015167ffffffffffffffff81111561072557610724610516565b5b6107318882890161064e565b955050602086015167ffffffffffffffff81111561075257610751610516565b5b61075e8882890161064e565b945050604061076f8882890161069d565b9350506060610780888289016106d6565b92505060806107918882890161069d565b9150509295509295909350565b600081519050919050565b7f4e487b7100000000000000000000000000000000000000000000000000000000600052602260045260246000fd5b600060028204905060018216806107f057607f821691505b602082108103610803576108026107a9565b5b50919050565b60008190508160005260206000209050919050565b60006020601f8301049050919050565b600082821b905092915050565b60006008830261086b7fffffffffffffffffffffffffffffffffffffffffffffffffffffffffffffffff8261082e565b610875868361082e565b95508019841693508086168417925050509392505050565b6000819050919050565b60006108b26108ad6108a88461067c565b61088d565b61067c565b9050919050565b6000819050919050565b6108cc83610897565b6108e06108d8826108b9565b84845461083b565b825550505050565b600090565b6108f56108e8565b6109008184846108c3565b505050565b5b81811015610924576109196000826108ed565b600181019050610906565b5050565b601f8211156109695761093a81610809565b6109438461081e565b81016020851015610952578190505b61096661095e8561081e565b830182610905565b50505b505050565b600082821c905092915050565b600061098c6000198460080261096e565b1980831691505092915050565b60006109a5838361097b565b9150826002028217905092915050565b6109be8261079e565b67ffffffffffffffff8111156109d7576109d6610536565b5b6109e182546107d8565b6109ec828285610928565b600060209050601f831160018114610a1f5760008415610a0d578287015190505b610a178582610999565b865550610a7f565b601f198416610a2d86610809565b60005b82811015610a5557848901518255600182019150602085019450602081019050610a30565b86831015610a725784890151610a6e601f89168261097b565b8355505b6001600288020188555050505b505050505050565b600073ffffffffffffffffffffffffffffffffffffffff82169050919050565b6000610ab282610a87565b9050919050565b610ac281610aa7565b82525050565b6000602082019050610add6000830184610ab9565b92915050565b7f4e487b7100000000000000000000000000000000000000000000000000000000600052601160045260246000fd5b60008160011c9050919050565b6000808291508390505b6001851115610b6957808604811115610b4557610b44610ae3565b5b6001851615610b545780820291505b8081029050610b6285610b12565b9450610b29565b94509492505050565b600082610b825760019050610c3e565b81610b905760009050610c3e565b8160018114610ba65760028114610bb057610bdf565b6001915050610c3e565b60ff841115610bc257610bc1610ae3565b5b8360020a915084821115610bd957610bd8610ae3565b5b50610c3e565b5060208310610133831016604e8410600b8410161715610c145782820a905083811115610c0f57610c0e610ae3565b5b610c3e565b610c218484846001610b1f565b92509050818404811115610c3857610c37610ae3565b5b81810290505b9392505050565b6000610c508261067c565b9150610c5b836106b2565b9250610c887fffffffffffffffffffffffffffffffffffffffffffffffffffffffffffffffff8484610b72565b905092915050565b6000610c9b8261067c565b9150610ca68361067c565b9250828202610cb48161067c565b91508282048414831517610ccb57610cca610ae3565b5b5092915050565b6000610cdd8261067c565b9150610ce88361067c565b9250828201905080821115610d0057610cff610ae3565b5b92915050565b610d0f8161067c565b82525050565b6000606082019050610d2a6000830186610ab9565b610d376020830185610d06565b610d446040830184610d06565b949350505050565b6000602082019050610d616000830184610d06565b92915050565b60805160a051611a22610da1600039600061048d0152600081816104670152818161052a015281816105c001526106040152611a226000f3fe608060405234801561001057600080fd5b50600436106101165760003560e01c806370a08231116100a257806395d89b411161007157806395d89b41146102bd578063a9059cbb146102db578063c763e5a11461030b578063dd62ed3e14610329578063f2fde38b1461035957610116565b806370a0823114610249578063715018a61461027957806379cc6790146102835780638da5cb5b1461029f57610116565b8063313ce567116100e9578063313ce567146101b757806332cb6b0c146101d557806340c10f19146101f357806342966c681461020f57806354fd4d501461022b57610116565b806306fdde031461011b578063095ea7b31461013957806318160ddd1461016957806323b872dd14610187575b600080fd5b610123610375565b604051610130919061137d565b60405180910390f35b610153600480360381019061014e9190611438565b610407565b6040516101609190611493565b60405180910390f35b61017161042a565b60405161017e91906114bd565b60405180910390f35b6101a1600480360381019061019c91906114d8565b610434565b6040516101ae9190611493565b60405180910390f35b6101bf610463565b6040516101cc9190611547565b60405180910390f35b6101dd61048b565b6040516101ea91906114bd565b60405180910390f35b61020d60048036038101906102089190611438565b6104af565b005b61022960048036038101906102249190611562565b610600565b005b6102336106a6565b604051610240919061137d565b60405180910390f35b610263600480360381019061025e919061158f565b6106df565b60405161027091906114bd565b60405180910390f35b610281610728565b005b61029d60048036038101906102989190611438565b61073c565b005b6102a761075c565b6040516102b491906115cb565b60405180910390f35b6102c5610786565b6040516102d2919061137d565b60405180910390f35b6102f560048036038101906102f09190611438565b610818565b6040516103029190611493565b60405180910390f35b6103136109b7565b604051610320919061137d565b60405180910390f35b610343600480360381019061033e91906115e6565b6109f0565b60405161035091906114bd565b60405180910390f35b610373600480360381019061036e919061158f565b610a77565b005b60606003805461038490611655565b80601f01602080910402602001604051908101604052809291908181526020018280546103b090611655565b80156103fd5780601f106103d2576101008083540402835291602001916103fd565b820191906000526020600020905b8154815290600101906020018083116103e057829003601f168201915b5050505050905090565b600080610412610afd565b905061041f818585610b05565b600191505092915050565b6000600254905090565b60008061043f610afd565b905061044c858285610b17565b610457858585610bac565b60019150509392505050565b60007f0000000000000000000000000000000000000000000000000000000000000000905090565b7f000000000000000000000000000000000000000000000000000000000000000081565b6104b7610ca0565b600073ffffffffffffffffffffffffffffffffffffffff168273ffffffffffffffffffffffffffffffffffffffff1603610526576040517f08c379a000000000000000000000000000000000000000000000000000000000815260040161051d906116d2565b60405180910390fd5b60007f0000000000000000000000000000000000000000000000000000000000000000600a6105559190611854565b82610560919061189f565b905061056c8382610d27565b8273ffffffffffffffffffffffffffffffffffffffff167fb9144c96c86541f6fa89c9f2f02495cccf4b08cd6643e26d34ee00aa586558a8826040516105b291906114bd565b60405180910390a26105fb837f0000000000000000000000000000000000000000000000000000000000000000600a6105eb9190611854565b846105f6919061189f565b610d27565b505050565b60007f0000000000000000000000000000000000000000000000000000000000000000600a61062f9190611854565b8261063a919061189f565b905061064d610647610afd565b82610da9565b610655610afd565b73ffffffffffffffffffffffffffffffffffffffff167f1af5163f80e79b5e554f61e1d052084d3a3fe1166e42a265798c4e2ddce8ffa28260405161069a91906114bd565b60405180910390a25050565b6040518060400160405280600581526020017f312e302e3000000000000000000000000000000000000000000000000000000081525081565b6000600660008373ffffffffffffffffffffffffffffffffffffffff1673ffffffffffffffffffffffffffffffffffffffff168152602001908152602001600020549050919050565b610730610ca0565b61073a6000610e2b565b565b61074e82610748610afd565b83610b17565b6107588282610da9565b5050565b6000600560009054906101000a900473ffffffffffffffffffffffffffffffffffffffff16905090565b60606004805461079590611655565b80601f01602080910402602001604051908101604052809291908181526020018280546107c190611655565b801561080e5780601f106107e35761010080835404028352916020019161080e565b820191906000526020600020905b8154815290600101906020018083116107f157829003601f168201915b5050505050905090565b600081600660003373ffffffffffffffffffffffffffffffffffffffff1673ffffffffffffffffffffffffffffffffffffffff16815260200190815260200160002054101561089c576040517f08c379a00000000000000000000000000000000000000000000000000000000081526004016108939061192d565b60405180910390fd5b81600660003373ffffffffffffffffffffffffffffffffffffffff1673ffffffffffffffffffffffffffffffffffffffff16815260200190815260200160002060008282546108eb919061194d565b9250508190555081600660008573ffffffffffffffffffffffffffffffffffffffff1673ffffffffffffffffffffffffffffffffffffffff16815260200190815260200160002060008282546109419190611981565b925050819055508273ffffffffffffffffffffffffffffffffffffffff163373ffffffffffffffffffffffffffffffffffffffff167fddf252ad1be2c89b69c2b068fc378daa952ba7f163c4a11628f55a4df523b3ef846040516109a591906114bd565b60405180910390a36001905092915050565b6040518060400160405280600881526020017f456475436861696e00000000000000000000000000000000000000000000000081525081565b6000600160008473ffffffffffffffffffffffffffffffffffffffff1673ffffffffffffffffffffffffffffffffffffffff16815260200190815260200160002060008373ffffffffffffffffffffffffffffffffffffffff1673ffffffffffffffffffffffffffffffffffffffff16815260200190815260200160002054905092915050565b610a7f610ca0565b600073ffffffffffffffffffffffffffffffffffffffff168173ffffffffffffffffffffffffffffffffffffffff1603610af15760006040517f1e4fbdf7000000000000000000000000000000000000000000000000000000008152600401610ae891906115cb565b60405180910390fd5b610afa81610e2b565b50565b600033905090565b610b128383836001610ef1565b505050565b6000610b2384846109f0565b90507fffffffffffffffffffffffffffffffffffffffffffffffffffffffffffffffff811015610ba65781811015610b96578281836040517ffb8f41b2000000000000000000000000000000000000000000000000000000008152600401610b8d939291906119b5565b60405180910390fd5b610ba584848484036000610ef1565b5b50505050565b600073ffffffffffffffffffffffffffffffffffffffff168373ffffffffffffffffffffffffffffffffffffffff1603610c1e5760006040517f96c6fd1e000000000000000000000000000000000000000000000000000000008152600401610c1591906115cb565b60405180910390fd5b600073ffffffffffffffffffffffffffffffffffffffff168273ffffffffffffffffffffffffffffffffffffffff1603610c905760006040517fec442f05000000000000000000000000000000000000000000000000000000008152600401610c8791906115cb565b60405180910390fd5b610c9b8383836110c8565b505050565b610ca8610afd565b73ffffffffffffffffffffffffffffffffffffffff16610cc661075c565b73ffffffffffffffffffffffffffffffffffffffff1614610d2557610ce9610afd565b6040517f118cdaa7000000000000000000000000000000000000000000000000000000008152600401610d1c91906115cb565b60405180910390fd5b565b600073ffffffffffffffffffffffffffffffffffffffff168273ffffffffffffffffffffffffffffffffffffffff1603610d995760006040517fec442f05000000000000000000000000000000000000000000000000000000008152600401610d9091906115cb565b60405180910390fd5b610da5600083836110c8565b5050565b600073ffffffffffffffffffffffffffffffffffffffff168273ffffffffffffffffffffffffffffffffffffffff1603610e1b5760006040517f96c6fd1e000000000000000000000000000000000000000000000000000000008152600401610e1291906115cb565b60405180910390fd5b610e27826000836110c8565b5050565b6000600560009054906101000a900473ffffffffffffffffffffffffffffffffffffffff16905081600560006101000a81548173ffffffffffffffffffffffffffffffffffffffff021916908373ffffffffffffffffffffffffffffffffffffffff1602179055508173ffffffffffffffffffffffffffffffffffffffff168173ffffffffffffffffffffffffffffffffffffffff167f8be0079c531659141344cd1fd0a4f28419497f9722a3daafe3b4186f6b6457e060405160405180910390a35050565b600073ffffffffffffffffffffffffffffffffffffffff168473ffffffffffffffffffffffffffffffffffffffff1603610f635760006040517fe602df05000000000000000000000000000000000000000000000000000000008152600401610f5a91906115cb565b60405180910390fd5b600073ffffffffffffffffffffffffffffffffffffffff168373ffffffffffffffffffffffffffffffffffffffff1603610fd55760006040517f94280d62000000000000000000000000000000000000000000000000000000008152600401610fcc91906115cb565b60405180910390fd5b81600160008673ffffffffffffffffffffffffffffffffffffffff1673ffffffffffffffffffffffffffffffffffffffff16815260200190815260200160002060008573ffffffffffffffffffffffffffffffffffffffff1673ffffffffffffffffffffffffffffffffffffffff1681526020019081526020016000208190555080156110c2578273ffffffffffffffffffffffffffffffffffffffff168473ffffffffffffffffffffffffffffffffffffffff167f8c5be1e5ebec7d5bd14f71427d1e84f3dd0314c0f7b2291e5b200ac8c7c3b925846040516110b991906114bd565b60405180910390a35b50505050565b600073ffffffffffffffffffffffffffffffffffffffff168373ffffffffffffffffffffffffffffffffffffffff160361111a57806002600082825461110e9190611981565b925050819055506111ed565b60008060008573ffffffffffffffffffffffffffffffffffffffff1673ffffffffffffffffffffffffffffffffffffffff168152602001908152602001600020549050818110156111a6578381836040517fe450d38c00000000000000000000000000000000000000000000000000000000815260040161119d939291906119b5565b60405180910390fd5b8181036000808673ffffffffffffffffffffffffffffffffffffffff1673ffffffffffffffffffffffffffffffffffffffff16815260200190815260200160002081905550505b600073ffffffffffffffffffffffffffffffffffffffff168273ffffffffffffffffffffffffffffffffffffffff16036112365780600260008282540392505081905550611283565b806000808473ffffffffffffffffffffffffffffffffffffffff1673ffffffffffffffffffffffffffffffffffffffff168152602001908152602001600020600082825401925050819055505b8173ffffffffffffffffffffffffffffffffffffffff168373ffffffffffffffffffffffffffffffffffffffff167fddf252ad1be2c89b69c2b068fc378daa952ba7f163c4a11628f55a4df523b3ef836040516112e091906114bd565b60405180910390a3505050565b600081519050919050565b600082825260208201905092915050565b60005b8381101561132757808201518184015260208101905061130c565b60008484015250505050565b6000601f19601f8301169050919050565b600061134f826112ed565b61135981856112f8565b9350611369818560208601611309565b61137281611333565b840191505092915050565b600060208201905081810360008301526113978184611344565b905092915050565b600080fd5b600073ffffffffffffffffffffffffffffffffffffffff82169050919050565b60006113cf826113a4565b9050919050565b6113df816113c4565b81146113ea57600080fd5b50565b6000813590506113fc816113d6565b92915050565b6000819050919050565b61141581611402565b811461142057600080fd5b50565b6000813590506114328161140c565b92915050565b6000806040838503121561144f5761144e61139f565b5b600061145d858286016113ed565b925050602061146e85828601611423565b9150509250929050565b60008115159050919050565b61148d81611478565b82525050565b60006020820190506114a86000830184611484565b92915050565b6114b781611402565b82525050565b60006020820190506114d260008301846114ae565b92915050565b6000806000606084860312156114f1576114f061139f565b5b60006114ff868287016113ed565b9350506020611510868287016113ed565b925050604061152186828701611423565b9150509250925092565b600060ff82169050919050565b6115418161152b565b82525050565b600060208201905061155c6000830184611538565b92915050565b6000602082840312156115785761157761139f565b5b600061158684828501611423565b91505092915050565b6000602082840312156115a5576115a461139f565b5b60006115b3848285016113ed565b91505092915050565b6115c5816113c4565b82525050565b60006020820190506115e060008301846115bc565b92915050565b600080604083850312156115fd576115fc61139f565b5b600061160b858286016113ed565b925050602061161c858286016113ed565b9150509250929050565b7f4e487b7100000000000000000000000000000000000000000000000000000000600052602260045260246000fd5b6000600282049050600182168061166d57607f821691505b6020821081036116805761167f611626565b5b50919050565b7f496e76616c696420726563697069656e74000000000000000000000000000000600082015250565b60006116bc6011836112f8565b91506116c782611686565b602082019050919050565b600060208201905081810360008301526116eb816116af565b9050919050565b7f4e487b7100000000000000000000000000000000000000000000000000000000600052601160045260246000fd5b60008160011c9050919050565b6000808291508390505b600185111561177857808604811115611754576117536116f2565b5b60018516156117635780820291505b808102905061177185611721565b9450611738565b94509492505050565b600082611791576001905061184d565b8161179f576000905061184d565b81600181146117b557600281146117bf576117ee565b600191505061184d565b60ff8411156117d1576117d06116f2565b5b8360020a9150848211156117e8576117e76116f2565b5b5061184d565b5060208310610133831016604e8410600b84101617156118235782820a90508381111561181e5761181d6116f2565b5b61184d565b611830848484600161172e565b92509050818404811115611847576118466116f2565b5b81810290505b9392505050565b600061185f82611402565b915061186a8361152b565b92506118977fffffffffffffffffffffffffffffffffffffffffffffffffffffffffffffffff8484611781565b905092915050565b60006118aa82611402565b91506118b583611402565b92508282026118c381611402565b915082820484148315176118da576118d96116f2565b5b5092915050565b7f4e6f7420656e6f75676820746f6b656e73000000000000000000000000000000600082015250565b60006119176011836112f8565b9150611922826118e1565b602082019050919050565b600060208201905081810360008301526119468161190a565b9050919050565b600061195882611402565b915061196383611402565b925082820390508181111561197b5761197a6116f2565b5b92915050565b600061198c82611402565b915061199783611402565b92508282019050808211156119af576119ae6116f2565b5b92915050565b60006060820190506119ca60008301866115bc565b6119d760208301856114ae565b6119e460408301846114ae565b94935050505056fea2646970667358221220d9b4f4090379257e1cd20ecb969a0c3187f88c96354831835d64b8b1e7e03d6d64736f6c634300081c0033",
  "linkReferences": {},
  "deployedLinkReferences": {}
}