{
  "_format": "hh-sol-artifact-1",
  "contractName": "FungibleToken",
  "sourceName": "src/contracts/FungibleToken.sol",
  "abi": [
    {
      "inputs": [
        {
          "internalType": "string",
          "name": "name_",
          "type": "string"
        },
        {
          "internalType": "string",
          "name": "symbol_",
          "type": "string"
        },
        {
          "internalType": "uint256",
          "name": "initialSupply",
          "type": "uint256"
        },
        {
          "internalType": "uint8",
          "name": "decimals_",
          "type": "uint8"
        },
        {
          "internalType": "uint256",
          "name": "maxSupply_",
          "type": "uint256"
        }
      ],
      "stateMutability": "nonpayable",
      "type": "constructor"
    },
    {
      "inputs": [
        {
          "internalType": "address",
          "name": "spender",
          "type": "address"
        },
        {
          "internalType": "uint256",
          "name": "allowance",
          "type": "uint256"
        },
        {
          "internalType": "uint256",
          "name": "needed",
          "type": "uint256"
        }
      ],
      "name": "ERC20InsufficientAllowance",
      "type": "error"
    },
    {
      "inputs": [
        {
          "internalType": "address",
          "name": "sender",
          "type": "address"
        },
        {
          "internalType": "uint256",
          "name": "balance",
          "type": "uint256"
        },
        {
          "internalType": "uint256",
          "name": "needed",
          "type": "uint256"
        }
      ],
      "name": "ERC20InsufficientBalance",
      "type": "error"
    },
    {
      "inputs": [
        {
          "internalType": "address",
          "name": "approver",
          "type": "address"
        }
      ],
      "name": "ERC20InvalidApprover",
      "type": "error"
    },
    {
      "inputs": [
        {
          "internalType": "address",
          "name": "receiver",
          "type": "address"
        }
      ],
      "name": "ERC20InvalidReceiver",
      "type": "error"
    },
    {
      "inputs": [
        {
          "internalType": "address",
          "name": "sender",
          "type": "address"
        }
      ],
      "name": "ERC20InvalidSender",
      "type": "error"
    },
    {
      "inputs": [
        {
          "internalType": "address",
          "name": "spender",
          "type": "address"
        }
      ],
      "name": "ERC20InvalidSpender",
      "type": "error"
    },
    {
      "inputs": [
        {
          "internalType": "address",
          "name": "owner",
          "type": "address"
        }
      ],
      "name": "OwnableInvalidOwner",
      "type": "error"
    },
    {
      "inputs": [
        {
          "internalType": "address",
          "name": "account",
          "type": "address"
        }
      ],
      "name": "OwnableUnauthorizedAccount",
      "type": "error"
    },
    {
      "anonymous": false,
      "inputs": [
        {
          "indexed": true,
          "internalType": "address",
          "name": "owner",
          "type": "address"
        },
        {
          "indexed": true,
          "internalType": "address",
          "name": "spender",
          "type": "address"
        },
        {
          "indexed": false,
          "internalType": "uint256",
          "name": "value",
          "type": "uint256"
        }
      ],
      "name": "Approval",
      "type": "event"
    },
    {
      "anonymous": false,
      "inputs": [
        {
          "indexed": true,
          "internalType": "address",
          "name": "previousOwner",
          "type": "address"
        },
        {
          "indexed": true,
          "internalType": "address",
          "name": "newOwner",
          "type": "address"
        }
      ],
      "name": "OwnershipTransferred",
      "type": "event"
    },
    {
      "anonymous": false,
      "inputs": [
        {
          "indexed": true,
          "internalType": "address",
          "name": "from",
          "type": "address"
        },
        {
          "indexed": false,
          "internalType": "uint256",
          "name": "amount",
          "type": "uint256"
        }
      ],
      "name": "TokenBurned",
      "type": "event"
    },
    {
      "anonymous": false,
      "inputs": [
        {
          "indexed": true,
          "internalType": "address",
          "name": "to",
          "type": "address"
        },
        {
          "indexed": false,
          "internalType": "uint256",
          "name": "amount",
          "type": "uint256"
        }
      ],
      "name": "TokenMinted",
      "type": "event"
    },
    {
      "anonymous": false,
      "inputs": [
        {
          "indexed": true,
          "internalType": "address",
          "name": "from",
          "type": "address"
        },
        {
          "indexed": true,
          "internalType": "address",
          "name": "to",
          "type": "address"
        },
        {
          "indexed": false,
          "internalType": "uint256",
          "name": "value",
          "type": "uint256"
        }
      ],
      "name": "Transfer",
      "type": "event"
    },
    {
      "inputs": [],
      "name": "MAX_SUPPLY",
      "outputs": [
        {
          "internalType": "uint256",
          "name": "",
          "type": "uint256"
        }
      ],
      "stateMutability": "view",
      "type": "function"
    },
    {
      "inputs": [
        {
          "internalType": "address",
          "name": "owner",
          "type": "address"
        },
        {
          "internalType": "address",
          "name": "spender",
          "type": "address"
        }
      ],
      "name": "allowance",
      "outputs": [
        {
          "internalType": "uint256",
          "name": "",
          "type": "uint256"
        }
      ],
      "stateMutability": "view",
      "type": "function"
    },
    {
      "inputs": [
        {
          "internalType": "address",
          "name": "spender",
          "type": "address"
        },
        {
          "internalType": "uint256",
          "name": "value",
          "type": "uint256"
        }
      ],
      "name": "approve",
      "outputs": [
        {
          "internalType": "bool",
          "name": "",
          "type": "bool"
        }
      ],
      "stateMutability": "nonpayable",
      "type": "function"
    },
    {
      "inputs": [
        {
          "internalType": "address",
          "name": "account",
          "type": "address"
        }
      ],
      "name": "balanceOf",
      "outputs": [
        {
          "internalType": "uint256",
          "name": "",
          "type": "uint256"
        }
      ],
      "stateMutability": "view",
      "type": "function"
    },
    {
      "inputs": [
        {
          "internalType": "uint256",
          "name": "amount",
          "type": "uint256"
        }
      ],
      "name": "burn",
      "outputs": [],
      "stateMutability": "nonpayable",
      "type": "function"
    },
    {
      "inputs": [
        {
          "internalType": "address",
          "name": "account",
          "type": "address"
        },
        {
          "internalType": "uint256",
          "name": "value",
          "type": "uint256"
        }
      ],
      "name": "burnFrom",
      "outputs": [],
      "stateMutability": "nonpayable",
      "type": "function"
    },
    {
      "inputs": [],
      "name": "chain",
      "outputs": [
        {
          "internalType": "string",
          "name": "",
          "type": "string"
        }
      ],
      "stateMutability": "view",
      "type": "function"
    },
    {
      "inputs": [],
      "name": "decimals",
      "outputs": [
        {
          "internalType": "uint8",
          "name": "",
          "type": "uint8"
        }
      ],
      "stateMutability": "view",
      "type": "function"
    },
    {
      "inputs": [
        {
          "internalType": "address",
          "name": "to",
          "type": "address"
        },
        {
          "internalType": "uint256",
          "name": "amount",
          "type": "uint256"
        }
      ],
      "name": "mint",
      "outputs": [],
      "stateMutability": "nonpayable",
      "type": "function"
    },
    {
      "inputs": [],
      "name": "name",
      "outputs": [
        {
          "internalType": "string",
          "name": "",
          "type": "string"
        }
      ],
      "stateMutability": "view",
      "type": "function"
    },
    {
      "inputs": [],
      "name": "owner",
      "outputs": [
        {
          "internalType": "address",
          "name": "",
          "type": "address"
        }
      ],
      "stateMutability": "view",
      "type": "function"
    },
    {
      "inputs": [],
      "name": "renounceOwnership",
      "outputs": [],
      "stateMutability": "nonpayable",
      "type": "function"
    },
    {
      "inputs": [],
      "name": "symbol",
      "outputs": [
        {
          "internalType": "string",
          "name": "",
          "type": "string"
        }
      ],
      "stateMutability": "view",
      "type": "function"
    },
    {
      "inputs": [],
      "name": "totalSupply",
      "outputs": [
        {
          "internalType": "uint256",
          "name": "",
          "type": "uint256"
        }
      ],
      "stateMutability": "view",
      "type": "function"
    },
    {
      "inputs": [
        {
          "internalType": "address",
          "name": "to",
          "type": "address"
        },
        {
          "internalType": "uint256",
          "name": "value",
          "type": "uint256"
        }
      ],
      "name": "transfer",
      "outputs": [
        {
          "internalType": "bool",
          "name": "",
          "type": "bool"
        }
      ],
      "stateMutability": "nonpayable",
      "type": "function"
    },
    {
      "inputs": [
        {
          "internalType": "address",
          "name": "from",
          "type": "address"
        },
        {
          "internalType": "address",
          "name": "to",
          "type": "address"
        },
        {
          "internalType": "uint256",
          "name": "value",
          "type": "uint256"
        }
      ],
      "name": "transferFrom",
      "outputs": [
        {
          "internalType": "bool",
          "name": "",
          "type": "bool"
        }
      ],
      "stateMutability": "nonpayable",
      "type": "function"
    },
    {
      "inputs": [
        {
          "internalType": "address",
          "name": "newOwner",
          "type": "address"
        }
      ],
      "name": "transferOwnership",
      "outputs": [],
      "stateMutability": "nonpayable",
      "type": "function"
    },
    {
      "inputs": [],
      "name": "version",
      "outputs": [
        {
          "internalType": "string",
          "name": "",
          "type": "string"
        }
      ],
      "stateMutability": "view",
      "type": "function"
    }
  ],
  "bytecode": "0x60c060405234801561001057600080fd5b5060405161254b38038061254b83398181016040528101906100329190610690565b3385858160039081610044919061095a565b508060049081610054919061095a565b505050600073ffffffffffffffffffffffffffffffffffffffff168173ffffffffffffffffffffffffffffffffffffffff16036100c95760006040517f1e4fbdf70000000000000000000000000000000000000000000000000000000081526004016100c09190610a6d565b60405180910390fd5b6100d88161013960201b60201c565b508160ff1660808160ff1681525050608051600a6100f69190610bea565b816101019190610c35565b60a0818152505061012f3383600a6101199190610bea565b856101249190610c35565b6101ff60201b60201c565b5050505050610d0c565b6000600560009054906101000a900473ffffffffffffffffffffffffffffffffffffffff16905081600560006101000a81548173ffffffffffffffffffffffffffffffffffffffff021916908373ffffffffffffffffffffffffffffffffffffffff1602179055508173ffffffffffffffffffffffffffffffffffffffff168173ffffffffffffffffffffffffffffffffffffffff167f8be0079c531659141344cd1fd0a4f28419497f9722a3daafe3b4186f6b6457e060405160405180910390a35050565b600073ffffffffffffffffffffffffffffffffffffffff168273ffffffffffffffffffffffffffffffffffffffff16036102715760006040517fec442f050000000000000000000000000000000000000000000000000000000081526004016102689190610a6d565b60405180910390fd5b6102836000838361028760201b60201c565b5050565b600073ffffffffffffffffffffffffffffffffffffffff168373ffffffffffffffffffffffffffffffffffffffff16036102d95780600260008282546102cd9190610c77565b925050819055506103ac565b60008060008573ffffffffffffffffffffffffffffffffffffffff1673ffffffffffffffffffffffffffffffffffffffff16815260200190815260200160002054905081811015610365578381836040517fe450d38c00000000000000000000000000000000000000000000000000000000815260040161035c93929190610cba565b60405180910390fd5b8181036000808673ffffffffffffffffffffffffffffffffffffffff1673ffffffffffffffffffffffffffffffffffffffff16815260200190815260200160002081905550505b600073ffffffffffffffffffffffffffffffffffffffff168273ffffffffffffffffffffffffffffffffffffffff16036103f55780600260008282540392505081905550610442565b806000808473ffffffffffffffffffffffffffffffffffffffff1673ffffffffffffffffffffffffffffffffffffffff168152602001908152602001600020600082825401925050819055505b8173ffffffffffffffffffffffffffffffffffffffff168373ffffffffffffffffffffffffffffffffffffffff167fddf252ad1be2c89b69c2b068fc378daa952ba7f163c4a11628f55a4df523b3ef8360405161049f9190610cf1565b60405180910390a3505050565b6000604051905090565b600080fd5b600080fd5b600080fd5b600080fd5b6000601f19601f8301169050919050565b7f4e487b7100000000000000000000000000000000000000000000000000000000600052604160045260246000fd5b610513826104ca565b810181811067ffffffffffffffff82111715610532576105316104db565b5b80604052505050565b60006105456104ac565b9050610551828261050a565b919050565b600067ffffffffffffffff821115610571576105706104db565b5b61057a826104ca565b9050602081019050919050565b60005b838110156105a557808201518184015260208101905061058a565b60008484015250505050565b60006105c46105bf84610556565b61053b565b9050828152602081018484840111156105e0576105df6104c5565b5b6105eb848285610587565b509392505050565b600082601f830112610608576106076104c0565b5b81516106188482602086016105b1565b91505092915050565b6000819050919050565b61063481610621565b811461063f57600080fd5b50565b6000815190506106518161062b565b92915050565b600060ff82169050919050565b61066d81610657565b811461067857600080fd5b50565b60008151905061068a81610664565b92915050565b600080600080600060a086880312156106ac576106ab6104b6565b5b600086015167ffffffffffffffff8111156106ca576106c96104bb565b5b6106d6888289016105f3565b955050602086015167ffffffffffffffff8111156106f7576106f66104bb565b5b610703888289016105f3565b945050604061071488828901610642565b93505060606107258882890161067b565b925050608061073688828901610642565b9150509295509295909350565b600081519050919050565b7f4e487b7100000000000000000000000000000000000000000000000000000000600052602260045260246000fd5b6000600282049050600182168061079557607f821691505b6020821081036107a8576107a761074e565b5b50919050565b60008190508160005260206000209050919050565b60006020601f8301049050919050565b600082821b905092915050565b6000600883026108107fffffffffffffffffffffffffffffffffffffffffffffffffffffffffffffffff826107d3565b61081a86836107d3565b95508019841693508086168417925050509392505050565b6000819050919050565b600061085761085261084d84610621565b610832565b610621565b9050919050565b6000819050919050565b6108718361083c565b61088561087d8261085e565b8484546107e0565b825550505050565b600090565b61089a61088d565b6108a5818484610868565b505050565b5b818110156108c9576108be600082610892565b6001810190506108ab565b5050565b601f82111561090e576108df816107ae565b6108e8846107c3565b810160208510156108f7578190505b61090b610903856107c3565b8301826108aa565b50505b505050565b600082821c905092915050565b600061093160001984600802610913565b1980831691505092915050565b600061094a8383610920565b9150826002028217905092915050565b61096382610743565b67ffffffffffffffff81111561097c5761097b6104db565b5b610986825461077d565b6109918282856108cd565b600060209050601f8311600181146109c457600084156109b2578287015190505b6109bc858261093e565b865550610a24565b601f1984166109d2866107ae565b60005b828110156109fa578489015182556001820191506020850194506020810190506109d5565b86831015610a175784890151610a13601f891682610920565b8355505b6001600288020188555050505b505050505050565b600073ffffffffffffffffffffffffffffffffffffffff82169050919050565b6000610a5782610a2c565b9050919050565b610a6781610a4c565b82525050565b6000602082019050610a826000830184610a5e565b92915050565b7f4e487b7100000000000000000000000000000000000000000000000000000000600052601160045260246000fd5b60008160011c9050919050565b6000808291508390505b6001851115610b0e57808604811115610aea57610ae9610a88565b5b6001851615610af95780820291505b8081029050610b0785610ab7565b9450610ace565b94509492505050565b600082610b275760019050610be3565b81610b355760009050610be3565b8160018114610b4b5760028114610b5557610b84565b6001915050610be3565b60ff841115610b6757610b66610a88565b5b8360020a915084821115610b7e57610b7d610a88565b5b50610be3565b5060208310610133831016604e8410600b8410161715610bb95782820a905083811115610bb457610bb3610a88565b5b610be3565b610bc68484846001610ac4565b92509050818404811115610bdd57610bdc610a88565b5b81810290505b9392505050565b6000610bf582610621565b9150610c0083610657565b9250610c2d7fffffffffffffffffffffffffffffffffffffffffffffffffffffffffffffffff8484610b17565b905092915050565b6000610c4082610621565b9150610c4b83610621565b9250828202610c5981610621565b91508282048414831517610c7057610c6f610a88565b5b5092915050565b6000610c8282610621565b9150610c8d83610621565b9250828201905080821115610ca557610ca4610a88565b5b92915050565b610cb481610621565b82525050565b6000606082019050610ccf6000830186610a5e565b610cdc6020830185610cab565b610ce96040830184610cab565b949350505050565b6000602082019050610d066000830184610cab565b92915050565b60805160a051611805610d46600039600061048d0152600081816104670152818161052a015281816105c0015261060401526118056000f3fe608060405234801561001057600080fd5b50600436106101165760003560e01c806370a08231116100a257806395d89b411161007157806395d89b41146102bd578063a9059cbb146102db578063c763e5a11461030b578063dd62ed3e14610329578063f2fde38b1461035957610116565b806370a0823114610249578063715018a61461027957806379cc6790146102835780638da5cb5b1461029f57610116565b8063313ce567116100e9578063313ce567146101b757806332cb6b0c146101d557806340c10f19146101f357806342966c681461020f57806354fd4d501461022b57610116565b806306fdde031461011b578063095ea7b31461013957806318160ddd1461016957806323b872dd14610187575b600080fd5b610123610375565b6040516101309190611200565b60405180910390f35b610153600480360381019061014e91906112bb565b610407565b6040516101609190611316565b60405180910390f35b61017161042a565b60405161017e9190611340565b60405180910390f35b6101a1600480360381019061019c919061135b565b610434565b6040516101ae9190611316565b60405180910390f35b6101bf610463565b6040516101cc91906113ca565b60405180910390f35b6101dd61048b565b6040516101ea9190611340565b60405180910390f35b61020d600480360381019061020891906112bb565b6104af565b005b610229600480360381019061022491906113e5565b610600565b005b6102336106a6565b6040516102409190611200565b60405180910390f35b610263600480360381019061025e9190611412565b6106df565b6040516102709190611340565b60405180910390f35b610281610727565b005b61029d600480360381019061029891906112bb565b61073b565b005b6102a761075b565b6040516102b4919061144e565b60405180910390f35b6102c5610785565b6040516102d29190611200565b60405180910390f35b6102f560048036038101906102f091906112bb565b610817565b6040516103029190611316565b60405180910390f35b61031361083a565b6040516103209190611200565b60405180910390f35b610343600480360381019061033e9190611469565b610873565b6040516103509190611340565b60405180910390f35b610373600480360381019061036e9190611412565b6108fa565b005b606060038054610384906114d8565b80601f01602080910402602001604051908101604052809291908181526020018280546103b0906114d8565b80156103fd5780601f106103d2576101008083540402835291602001916103fd565b820191906000526020600020905b8154815290600101906020018083116103e057829003601f168201915b5050505050905090565b600080610412610980565b905061041f818585610988565b600191505092915050565b6000600254905090565b60008061043f610980565b905061044c85828561099a565b610457858585610a2f565b60019150509392505050565b60007f0000000000000000000000000000000000000000000000000000000000000000905090565b7f000000000000000000000000000000000000000000000000000000000000000081565b6104b7610b23565b600073ffffffffffffffffffffffffffffffffffffffff168273ffffffffffffffffffffffffffffffffffffffff1603610526576040517f08c379a000000000000000000000000000000000000000000000000000000000815260040161051d90611555565b60405180910390fd5b60007f0000000000000000000000000000000000000000000000000000000000000000600a61055591906116d7565b826105609190611722565b905061056c8382610baa565b8273ffffffffffffffffffffffffffffffffffffffff167fb9144c96c86541f6fa89c9f2f02495cccf4b08cd6643e26d34ee00aa586558a8826040516105b29190611340565b60405180910390a26105fb837f0000000000000000000000000000000000000000000000000000000000000000600a6105eb91906116d7565b846105f69190611722565b610baa565b505050565b60007f0000000000000000000000000000000000000000000000000000000000000000600a61062f91906116d7565b8261063a9190611722565b905061064d610647610980565b82610c2c565b610655610980565b73ffffffffffffffffffffffffffffffffffffffff167f1af5163f80e79b5e554f61e1d052084d3a3fe1166e42a265798c4e2ddce8ffa28260405161069a9190611340565b60405180910390a25050565b6040518060400160405280600581526020017f312e302e3000000000000000000000000000000000000000000000000000000081525081565b60008060008373ffffffffffffffffffffffffffffffffffffffff1673ffffffffffffffffffffffffffffffffffffffff168152602001908152602001600020549050919050565b61072f610b23565b6107396000610cae565b565b61074d82610747610980565b8361099a565b6107578282610c2c565b5050565b6000600560009054906101000a900473ffffffffffffffffffffffffffffffffffffffff16905090565b606060048054610794906114d8565b80601f01602080910402602001604051908101604052809291908181526020018280546107c0906114d8565b801561080d5780601f106107e25761010080835404028352916020019161080d565b820191906000526020600020905b8154815290600101906020018083116107f057829003601f168201915b5050505050905090565b600080610822610980565b905061082f818585610a2f565b600191505092915050565b6040518060400160405280600881526020017f456475436861696e00000000000000000000000000000000000000000000000081525081565b6000600160008473ffffffffffffffffffffffffffffffffffffffff1673ffffffffffffffffffffffffffffffffffffffff16815260200190815260200160002060008373ffffffffffffffffffffffffffffffffffffffff1673ffffffffffffffffffffffffffffffffffffffff16815260200190815260200160002054905092915050565b610902610b23565b600073ffffffffffffffffffffffffffffffffffffffff168173ffffffffffffffffffffffffffffffffffffffff16036109745760006040517f1e4fbdf700000000000000000000000000000000000000000000000000000000815260040161096b919061144e565b60405180910390fd5b61097d81610cae565b50565b600033905090565b6109958383836001610d74565b505050565b60006109a68484610873565b90507fffffffffffffffffffffffffffffffffffffffffffffffffffffffffffffffff811015610a295781811015610a19578281836040517ffb8f41b2000000000000000000000000000000000000000000000000000000008152600401610a1093929190611764565b60405180910390fd5b610a2884848484036000610d74565b5b50505050565b600073ffffffffffffffffffffffffffffffffffffffff168373ffffffffffffffffffffffffffffffffffffffff1603610aa15760006040517f96c6fd1e000000000000000000000000000000000000000000000000000000008152600401610a98919061144e565b60405180910390fd5b600073ffffffffffffffffffffffffffffffffffffffff168273ffffffffffffffffffffffffffffffffffffffff1603610b135760006040517fec442f05000000000000000000000000000000000000000000000000000000008152600401610b0a919061144e565b60405180910390fd5b610b1e838383610f4b565b505050565b610b2b610980565b73ffffffffffffffffffffffffffffffffffffffff16610b4961075b565b73ffffffffffffffffffffffffffffffffffffffff1614610ba857610b6c610980565b6040517f118cdaa7000000000000000000000000000000000000000000000000000000008152600401610b9f919061144e565b60405180910390fd5b565b600073ffffffffffffffffffffffffffffffffffffffff168273ffffffffffffffffffffffffffffffffffffffff1603610c1c5760006040517fec442f05000000000000000000000000000000000000000000000000000000008152600401610c13919061144e565b60405180910390fd5b610c2860008383610f4b565b5050565b600073ffffffffffffffffffffffffffffffffffffffff168273ffffffffffffffffffffffffffffffffffffffff1603610c9e5760006040517f96c6fd1e000000000000000000000000000000000000000000000000000000008152600401610c95919061144e565b60405180910390fd5b610caa82600083610f4b565b5050565b6000600560009054906101000a900473ffffffffffffffffffffffffffffffffffffffff16905081600560006101000a81548173ffffffffffffffffffffffffffffffffffffffff021916908373ffffffffffffffffffffffffffffffffffffffff1602179055508173ffffffffffffffffffffffffffffffffffffffff168173ffffffffffffffffffffffffffffffffffffffff167f8be0079c531659141344cd1fd0a4f28419497f9722a3daafe3b4186f6b6457e060405160405180910390a35050565b600073ffffffffffffffffffffffffffffffffffffffff168473ffffffffffffffffffffffffffffffffffffffff1603610de65760006040517fe602df05000000000000000000000000000000000000000000000000000000008152600401610ddd919061144e565b60405180910390fd5b600073ffffffffffffffffffffffffffffffffffffffff168373ffffffffffffffffffffffffffffffffffffffff1603610e585760006040517f94280d62000000000000000000000000000000000000000000000000000000008152600401610e4f919061144e565b60405180910390fd5b81600160008673ffffffffffffffffffffffffffffffffffffffff1673ffffffffffffffffffffffffffffffffffffffff16815260200190815260200160002060008573ffffffffffffffffffffffffffffffffffffffff1673ffffffffffffffffffffffffffffffffffffffff168152602001908152602001600020819055508015610f45578273ffffffffffffffffffffffffffffffffffffffff168473ffffffffffffffffffffffffffffffffffffffff167f8c5be1e5ebec7d5bd14f71427d1e84f3dd0314c0f7b2291e5b200ac8c7c3b92584604051610f3c9190611340565b60405180910390a35b50505050565b600073ffffffffffffffffffffffffffffffffffffffff168373ffffffffffffffffffffffffffffffffffffffff1603610f9d578060026000828254610f91919061179b565b92505081905550611070565b60008060008573ffffffffffffffffffffffffffffffffffffffff1673ffffffffffffffffffffffffffffffffffffffff16815260200190815260200160002054905081811015611029578381836040517fe450d38c00000000000000000000000000000000000000000000000000000000815260040161102093929190611764565b60405180910390fd5b8181036000808673ffffffffffffffffffffffffffffffffffffffff1673ffffffffffffffffffffffffffffffffffffffff16815260200190815260200160002081905550505b600073ffffffffffffffffffffffffffffffffffffffff168273ffffffffffffffffffffffffffffffffffffffff16036110b95780600260008282540392505081905550611106565b806000808473ffffffffffffffffffffffffffffffffffffffff1673ffffffffffffffffffffffffffffffffffffffff168152602001908152602001600020600082825401925050819055505b8173ffffffffffffffffffffffffffffffffffffffff168373ffffffffffffffffffffffffffffffffffffffff167fddf252ad1be2c89b69c2b068fc378daa952ba7f163c4a11628f55a4df523b3ef836040516111639190611340565b60405180910390a3505050565b600081519050919050565b600082825260208201905092915050565b60005b838110156111aa57808201518184015260208101905061118f565b60008484015250505050565b6000601f19601f8301169050919050565b60006111d282611170565b6111dc818561117b565b93506111ec81856020860161118c565b6111f5816111b6565b840191505092915050565b6000602082019050818103600083015261121a81846111c7565b905092915050565b600080fd5b600073ffffffffffffffffffffffffffffffffffffffff82169050919050565b600061125282611227565b9050919050565b61126281611247565b811461126d57600080fd5b50565b60008135905061127f81611259565b92915050565b6000819050919050565b61129881611285565b81146112a357600080fd5b50565b6000813590506112b58161128f565b92915050565b600080604083850312156112d2576112d1611222565b5b60006112e085828601611270565b92505060206112f1858286016112a6565b9150509250929050565b60008115159050919050565b611310816112fb565b82525050565b600060208201905061132b6000830184611307565b92915050565b61133a81611285565b82525050565b60006020820190506113556000830184611331565b92915050565b60008060006060848603121561137457611373611222565b5b600061138286828701611270565b935050602061139386828701611270565b92505060406113a4868287016112a6565b9150509250925092565b600060ff82169050919050565b6113c4816113ae565b82525050565b60006020820190506113df60008301846113bb565b92915050565b6000602082840312156113fb576113fa611222565b5b6000611409848285016112a6565b91505092915050565b60006020828403121561142857611427611222565b5b600061143684828501611270565b91505092915050565b61144881611247565b82525050565b6000602082019050611463600083018461143f565b92915050565b600080604083850312156114805761147f611222565b5b600061148e85828601611270565b925050602061149f85828601611270565b9150509250929050565b7f4e487b7100000000000000000000000000000000000000000000000000000000600052602260045260246000fd5b600060028204905060018216806114f057607f821691505b602082108103611503576115026114a9565b5b50919050565b7f496e76616c696420726563697069656e74000000000000000000000000000000600082015250565b600061153f60118361117b565b915061154a82611509565b602082019050919050565b6000602082019050818103600083015261156e81611532565b9050919050565b7f4e487b7100000000000000000000000000000000000000000000000000000000600052601160045260246000fd5b60008160011c9050919050565b6000808291508390505b60018511156115fb578086048111156115d7576115d6611575565b5b60018516156115e65780820291505b80810290506115f4856115a4565b94506115bb565b94509492505050565b60008261161457600190506116d0565b8161162257600090506116d0565b8160018114611638576002811461164257611671565b60019150506116d0565b60ff84111561165457611653611575565b5b8360020a91508482111561166b5761166a611575565b5b506116d0565b5060208310610133831016604e8410600b84101617156116a65782820a9050838111156116a1576116a0611575565b5b6116d0565b6116b384848460016115b1565b925090508184048111156116ca576116c9611575565b5b81810290505b9392505050565b60006116e282611285565b91506116ed836113ae565b925061171a7fffffffffffffffffffffffffffffffffffffffffffffffffffffffffffffffff8484611604565b905092915050565b600061172d82611285565b915061173883611285565b925082820261174681611285565b9150828204841483151761175d5761175c611575565b5b5092915050565b6000606082019050611779600083018661143f565b6117866020830185611331565b6117936040830184611331565b949350505050565b60006117a682611285565b91506117b183611285565b92508282019050808211156117c9576117c8611575565b5b9291505056fea264697066735822122093cf64ea302fd77b21c39ee93104236ec41ff589e9e662440665f1dd352547a564736f6c634300081c0033",
  "linkReferences": {},
  "deployedLinkReferences": {}
}