{
  "_format": "hh-sol-artifact-1",
  "contractName": "NFT",
  "sourceName": "src/contracts/NFT.sol",
  "abi": [
    {
      "inputs": [
        {
          "internalType": "string",
          "name": "name_",
          "type": "string"
        },
        {
          "internalType": "string",
          "name": "symbol_",
          "type": "string"
        },
        {
          "internalType": "string",
          "name": "baseURI_",
          "type": "string"
        }
      ],
      "stateMutability": "nonpayable",
      "type": "constructor"
    },
    {
      "inputs": [
        {
          "internalType": "address",
          "name": "sender",
          "type": "address"
        },
        {
          "internalType": "uint256",
          "name": "tokenId",
          "type": "uint256"
        },
        {
          "internalType": "address",
          "name": "owner",
          "type": "address"
        }
      ],
      "name": "ERC721IncorrectOwner",
      "type": "error"
    },
    {
      "inputs": [
        {
          "internalType": "address",
          "name": "operator",
          "type": "address"
        },
        {
          "internalType": "uint256",
          "name": "tokenId",
          "type": "uint256"
        }
      ],
      "name": "ERC721InsufficientApproval",
      "type": "error"
    },
    {
      "inputs": [
        {
          "internalType": "address",
          "name": "approver",
          "type": "address"
        }
      ],
      "name": "ERC721InvalidApprover",
      "type": "error"
    },
    {
      "inputs": [
        {
          "internalType": "address",
          "name": "operator",
          "type": "address"
        }
      ],
      "name": "ERC721InvalidOperator",
      "type": "error"
    },
    {
      "inputs": [
        {
          "internalType": "address",
          "name": "owner",
          "type": "address"
        }
      ],
      "name": "ERC721InvalidOwner",
      "type": "error"
    },
    {
      "inputs": [
        {
          "internalType": "address",
          "name": "receiver",
          "type": "address"
        }
      ],
      "name": "ERC721InvalidReceiver",
      "type": "error"
    },
    {
      "inputs": [
        {
          "internalType": "address",
          "name": "sender",
          "type": "address"
        }
      ],
      "name": "ERC721InvalidSender",
      "type": "error"
    },
    {
      "inputs": [
        {
          "internalType": "uint256",
          "name": "tokenId",
          "type": "uint256"
        }
      ],
      "name": "ERC721NonexistentToken",
      "type": "error"
    },
    {
      "inputs": [
        {
          "internalType": "address",
          "name": "owner",
          "type": "address"
        }
      ],
      "name": "OwnableInvalidOwner",
      "type": "error"
    },
    {
      "inputs": [
        {
          "internalType": "address",
          "name": "account",
          "type": "address"
        }
      ],
      "name": "OwnableUnauthorizedAccount",
      "type": "error"
    },
    {
      "anonymous": false,
      "inputs": [
        {
          "indexed": true,
          "internalType": "address",
          "name": "owner",
          "type": "address"
        },
        {
          "indexed": true,
          "internalType": "address",
          "name": "approved",
          "type": "address"
        },
        {
          "indexed": true,
          "internalType": "uint256",
          "name": "tokenId",
          "type": "uint256"
        }
      ],
      "name": "Approval",
      "type": "event"
    },
    {
      "anonymous": false,
      "inputs": [
        {
          "indexed": true,
          "internalType": "address",
          "name": "owner",
          "type": "address"
        },
        {
          "indexed": true,
          "internalType": "address",
          "name": "operator",
          "type": "address"
        },
        {
          "indexed": false,
          "internalType": "bool",
          "name": "approved",
          "type": "bool"
        }
      ],
      "name": "ApprovalForAll",
      "type": "event"
    },
    {
      "anonymous": false,
      "inputs": [
        {
          "indexed": false,
          "internalType": "uint256",
          "name": "_fromTokenId",
          "type": "uint256"
        },
        {
          "indexed": false,
          "internalType": "uint256",
          "name": "_toTokenId",
          "type": "uint256"
        }
      ],
      "name": "BatchMetadataUpdate",
      "type": "event"
    },
    {
      "anonymous": false,
      "inputs": [
        {
          "indexed": false,
          "internalType": "uint256",
          "name": "_tokenId",
          "type": "uint256"
        }
      ],
      "name": "MetadataUpdate",
      "type": "event"
    },
    {
      "anonymous": false,
      "inputs": [
        {
          "indexed": true,
          "internalType": "address",
          "name": "previousOwner",
          "type": "address"
        },
        {
          "indexed": true,
          "internalType": "address",
          "name": "newOwner",
          "type": "address"
        }
      ],
      "name": "OwnershipTransferred",
      "type": "event"
    },
    {
      "anonymous": false,
      "inputs": [
        {
          "indexed": true,
          "internalType": "address",
          "name": "to",
          "type": "address"
        },
        {
          "indexed": true,
          "internalType": "uint256",
          "name": "tokenId",
          "type": "uint256"
        }
      ],
      "name": "TokenMinted",
      "type": "event"
    },
    {
      "anonymous": false,
      "inputs": [
        {
          "indexed": true,
          "internalType": "address",
          "name": "from",
          "type": "address"
        },
        {
          "indexed": true,
          "internalType": "address",
          "name": "to",
          "type": "address"
        },
        {
          "indexed": true,
          "internalType": "uint256",
          "name": "tokenId",
          "type": "uint256"
        }
      ],
      "name": "Transfer",
      "type": "event"
    },
    {
      "inputs": [
        {
          "internalType": "address",
          "name": "to",
          "type": "address"
        },
        {
          "internalType": "uint256",
          "name": "tokenId",
          "type": "uint256"
        }
      ],
      "name": "approve",
      "outputs": [],
      "stateMutability": "nonpayable",
      "type": "function"
    },
    {
      "inputs": [
        {
          "internalType": "address",
          "name": "owner",
          "type": "address"
        }
      ],
      "name": "balanceOf",
      "outputs": [
        {
          "internalType": "uint256",
          "name": "",
          "type": "uint256"
        }
      ],
      "stateMutability": "view",
      "type": "function"
    },
    {
      "inputs": [],
      "name": "chain",
      "outputs": [
        {
          "internalType": "string",
          "name": "",
          "type": "string"
        }
      ],
      "stateMutability": "view",
      "type": "function"
    },
    {
      "inputs": [
        {
          "internalType": "uint256",
          "name": "tokenId",
          "type": "uint256"
        }
      ],
      "name": "getApproved",
      "outputs": [
        {
          "internalType": "address",
          "name": "",
          "type": "address"
        }
      ],
      "stateMutability": "view",
      "type": "function"
    },
    {
      "inputs": [
        {
          "internalType": "address",
          "name": "owner",
          "type": "address"
        },
        {
          "internalType": "address",
          "name": "operator",
          "type": "address"
        }
      ],
      "name": "isApprovedForAll",
      "outputs": [
        {
          "internalType": "bool",
          "name": "",
          "type": "bool"
        }
      ],
      "stateMutability": "view",
      "type": "function"
    },
    {
      "inputs": [
        {
          "internalType": "address",
          "name": "recipient",
          "type": "address"
        }
      ],
      "name": "mintNFT",
      "outputs": [
        {
          "internalType": "uint256",
          "name": "",
          "type": "uint256"
        }
      ],
      "stateMutability": "nonpayable",
      "type": "function"
    },
    {
      "inputs": [],
      "name": "name",
      "outputs": [
        {
          "internalType": "string",
          "name": "",
          "type": "string"
        }
      ],
      "stateMutability": "view",
      "type": "function"
    },
    {
      "inputs": [],
      "name": "owner",
      "outputs": [
        {
          "internalType": "address",
          "name": "",
          "type": "address"
        }
      ],
      "stateMutability": "view",
      "type": "function"
    },
    {
      "inputs": [
        {
          "internalType": "uint256",
          "name": "tokenId",
          "type": "uint256"
        }
      ],
      "name": "ownerOf",
      "outputs": [
        {
          "internalType": "address",
          "name": "",
          "type": "address"
        }
      ],
      "stateMutability": "view",
      "type": "function"
    },
    {
      "inputs": [],
      "name": "renounceOwnership",
      "outputs": [],
      "stateMutability": "nonpayable",
      "type": "function"
    },
    {
      "inputs": [
        {
          "internalType": "address",
          "name": "from",
          "type": "address"
        },
        {
          "internalType": "address",
          "name": "to",
          "type": "address"
        },
        {
          "internalType": "uint256",
          "name": "tokenId",
          "type": "uint256"
        }
      ],
      "name": "safeTransferFrom",
      "outputs": [],
      "stateMutability": "nonpayable",
      "type": "function"
    },
    {
      "inputs": [
        {
          "internalType": "address",
          "name": "from",
          "type": "address"
        },
        {
          "internalType": "address",
          "name": "to",
          "type": "address"
        },
        {
          "internalType": "uint256",
          "name": "tokenId",
          "type": "uint256"
        },
        {
          "internalType": "bytes",
          "name": "data",
          "type": "bytes"
        }
      ],
      "name": "safeTransferFrom",
      "outputs": [],
      "stateMutability": "nonpayable",
      "type": "function"
    },
    {
      "inputs": [
        {
          "internalType": "address",
          "name": "operator",
          "type": "address"
        },
        {
          "internalType": "bool",
          "name": "approved",
          "type": "bool"
        }
      ],
      "name": "setApprovalForAll",
      "outputs": [],
      "stateMutability": "nonpayable",
      "type": "function"
    },
    {
      "inputs": [
        {
          "internalType": "string",
          "name": "newBaseURI",
          "type": "string"
        }
      ],
      "name": "setBaseURI",
      "outputs": [],
      "stateMutability": "nonpayable",
      "type": "function"
    },
    {
      "inputs": [
        {
          "internalType": "bytes4",
          "name": "interfaceId",
          "type": "bytes4"
        }
      ],
      "name": "supportsInterface",
      "outputs": [
        {
          "internalType": "bool",
          "name": "",
          "type": "bool"
        }
      ],
      "stateMutability": "view",
      "type": "function"
    },
    {
      "inputs": [],
      "name": "symbol",
      "outputs": [
        {
          "internalType": "string",
          "name": "",
          "type": "string"
        }
      ],
      "stateMutability": "view",
      "type": "function"
    },
    {
      "inputs": [
        {
          "internalType": "uint256",
          "name": "tokenId",
          "type": "uint256"
        }
      ],
      "name": "tokenURI",
      "outputs": [
        {
          "internalType": "string",
          "name": "",
          "type": "string"
        }
      ],
      "stateMutability": "view",
      "type": "function"
    },
    {
      "inputs": [],
      "name": "totalSupply",
      "outputs": [
        {
          "internalType": "uint256",
          "name": "",
          "type": "uint256"
        }
      ],
      "stateMutability": "view",
      "type": "function"
    },
    {
      "inputs": [
        {
          "internalType": "address",
          "name": "from",
          "type": "address"
        },
        {
          "internalType": "address",
          "name": "to",
          "type": "address"
        },
        {
          "internalType": "uint256",
          "name": "tokenId",
          "type": "uint256"
        }
      ],
      "name": "transferFrom",
      "outputs": [],
      "stateMutability": "nonpayable",
      "type": "function"
    },
    {
      "inputs": [
        {
          "internalType": "address",
          "name": "newOwner",
          "type": "address"
        }
      ],
      "name": "transferOwnership",
      "outputs": [],
      "stateMutability": "nonpayable",
      "type": "function"
    },
    {
      "inputs": [],
      "name": "version",
      "outputs": [
        {
          "internalType": "string",
          "name": "",
          "type": "string"
        }
      ],
      "stateMutability": "view",
      "type": "function"
    }
  ],
  "bytecode": "0x6080604052600060085534801561001557600080fd5b5060405161302738038061302783398181016040528101906100379190610331565b338383816000908161004991906105f9565b50806001908161005991906105f9565b505050600073ffffffffffffffffffffffffffffffffffffffff168173ffffffffffffffffffffffffffffffffffffffff16036100ce5760006040517f1e4fbdf70000000000000000000000000000000000000000000000000000000081526004016100c5919061070c565b60405180910390fd5b6100dd816100f660201b60201c565b5080600990816100ed91906105f9565b50505050610727565b6000600760009054906101000a900473ffffffffffffffffffffffffffffffffffffffff16905081600760006101000a81548173ffffffffffffffffffffffffffffffffffffffff021916908373ffffffffffffffffffffffffffffffffffffffff1602179055508173ffffffffffffffffffffffffffffffffffffffff168173ffffffffffffffffffffffffffffffffffffffff167f8be0079c531659141344cd1fd0a4f28419497f9722a3daafe3b4186f6b6457e060405160405180910390a35050565b6000604051905090565b600080fd5b600080fd5b600080fd5b600080fd5b6000601f19601f8301169050919050565b7f4e487b7100000000000000000000000000000000000000000000000000000000600052604160045260246000fd5b610223826101da565b810181811067ffffffffffffffff82111715610242576102416101eb565b5b80604052505050565b60006102556101bc565b9050610261828261021a565b919050565b600067ffffffffffffffff821115610281576102806101eb565b5b61028a826101da565b9050602081019050919050565b60005b838110156102b557808201518184015260208101905061029a565b60008484015250505050565b60006102d46102cf84610266565b61024b565b9050828152602081018484840111156102f0576102ef6101d5565b5b6102fb848285610297565b509392505050565b600082601f830112610318576103176101d0565b5b81516103288482602086016102c1565b91505092915050565b60008060006060848603121561034a576103496101c6565b5b600084015167ffffffffffffffff811115610368576103676101cb565b5b61037486828701610303565b935050602084015167ffffffffffffffff811115610395576103946101cb565b5b6103a186828701610303565b925050604084015167ffffffffffffffff8111156103c2576103c16101cb565b5b6103ce86828701610303565b9150509250925092565b600081519050919050565b7f4e487b7100000000000000000000000000000000000000000000000000000000600052602260045260246000fd5b6000600282049050600182168061042a57607f821691505b60208210810361043d5761043c6103e3565b5b50919050565b60008190508160005260206000209050919050565b60006020601f8301049050919050565b600082821b905092915050565b6000600883026104a57fffffffffffffffffffffffffffffffffffffffffffffffffffffffffffffffff82610468565b6104af8683610468565b95508019841693508086168417925050509392505050565b6000819050919050565b6000819050919050565b60006104f66104f16104ec846104c7565b6104d1565b6104c7565b9050919050565b6000819050919050565b610510836104db565b61052461051c826104fd565b848454610475565b825550505050565b600090565b61053961052c565b610544818484610507565b505050565b5b818110156105685761055d600082610531565b60018101905061054a565b5050565b601f8211156105ad5761057e81610443565b61058784610458565b81016020851015610596578190505b6105aa6105a285610458565b830182610549565b50505b505050565b600082821c905092915050565b60006105d0600019846008026105b2565b1980831691505092915050565b60006105e983836105bf565b9150826002028217905092915050565b610602826103d8565b67ffffffffffffffff81111561061b5761061a6101eb565b5b6106258254610412565b61063082828561056c565b600060209050601f8311600181146106635760008415610651578287015190505b61065b85826105dd565b8655506106c3565b601f19841661067186610443565b60005b8281101561069957848901518255600182019150602085019450602081019050610674565b868310156106b657848901516106b2601f8916826105bf565b8355505b6001600288020188555050505b505050505050565b600073ffffffffffffffffffffffffffffffffffffffff82169050919050565b60006106f6826106cb565b9050919050565b610706816106eb565b82525050565b600060208201905061072160008301846106fd565b92915050565b6128f1806107366000396000f3fe608060405234801561001057600080fd5b50600436106101375760003560e01c80636352211e116100b8578063a22cb4651161007c578063a22cb4651461033c578063b88d4fde14610358578063c763e5a114610374578063c87b56dd14610392578063e985e9c5146103c2578063f2fde38b146103f257610137565b80636352211e1461029657806370a08231146102c6578063715018a6146102f65780638da5cb5b1461030057806395d89b411461031e57610137565b806323b872dd116100ff57806323b872dd146101f457806342842e0e1461021057806354ba0f271461022c57806354fd4d501461025c57806355f804b31461027a57610137565b806301ffc9a71461013c57806306fdde031461016c578063081812fc1461018a578063095ea7b3146101ba57806318160ddd146101d6575b600080fd5b61015660048036038101906101519190611d5c565b61040e565b6040516101639190611da4565b60405180910390f35b61017461046f565b6040516101819190611e4f565b60405180910390f35b6101a4600480360381019061019f9190611ea7565b610501565b6040516101b19190611f15565b60405180910390f35b6101d460048036038101906101cf9190611f5c565b61051d565b005b6101de610533565b6040516101eb9190611fab565b60405180910390f35b61020e60048036038101906102099190611fc6565b61053d565b005b61022a60048036038101906102259190611fc6565b61063f565b005b61024660048036038101906102419190612019565b61065f565b6040516102539190611fab565b60405180910390f35b610264610773565b6040516102719190611e4f565b60405180910390f35b610294600480360381019061028f919061217b565b6107ac565b005b6102b060048036038101906102ab9190611ea7565b6107c7565b6040516102bd9190611f15565b60405180910390f35b6102e060048036038101906102db9190612019565b6107d9565b6040516102ed9190611fab565b60405180910390f35b6102fe610893565b005b6103086108a7565b6040516103159190611f15565b60405180910390f35b6103266108d1565b6040516103339190611e4f565b60405180910390f35b610356600480360381019061035191906121f0565b610963565b005b610372600480360381019061036d91906122d1565b610979565b005b61037c61099e565b6040516103899190611e4f565b60405180910390f35b6103ac60048036038101906103a79190611ea7565b6109d7565b6040516103b99190611e4f565b60405180910390f35b6103dc60048036038101906103d79190612354565b610aea565b6040516103e99190611da4565b60405180910390f35b61040c60048036038101906104079190612019565b610b7e565b005b6000634906490660e01b7bffffffffffffffffffffffffffffffffffffffffffffffffffffffff1916827bffffffffffffffffffffffffffffffffffffffffffffffffffffffff19161480610468575061046782610c04565b5b9050919050565b60606000805461047e906123c3565b80601f01602080910402602001604051908101604052809291908181526020018280546104aa906123c3565b80156104f75780601f106104cc576101008083540402835291602001916104f7565b820191906000526020600020905b8154815290600101906020018083116104da57829003601f168201915b5050505050905090565b600061050c82610ce6565b5061051682610d6e565b9050919050565b61052f828261052a610dab565b610db3565b5050565b6000600854905090565b600073ffffffffffffffffffffffffffffffffffffffff168273ffffffffffffffffffffffffffffffffffffffff16036105af5760006040517f64a0ae920000000000000000000000000000000000000000000000000000000081526004016105a69190611f15565b60405180910390fd5b60006105c383836105be610dab565b610dc5565b90508373ffffffffffffffffffffffffffffffffffffffff168173ffffffffffffffffffffffffffffffffffffffff1614610639578382826040517f64283d7b000000000000000000000000000000000000000000000000000000008152600401610630939291906123f4565b60405180910390fd5b50505050565b61065a83838360405180602001604052806000815250610979565b505050565b6000610669610fdf565b60006008549050600860008154809291906106839061245a565b91905055506106928382611066565b61072681600980546106a3906123c3565b80601f01602080910402602001604051908101604052809291908181526020018280546106cf906123c3565b801561071c5780601f106106f15761010080835404028352916020019161071c565b820191906000526020600020905b8154815290600101906020018083116106ff57829003601f168201915b5050505050611084565b808373ffffffffffffffffffffffffffffffffffffffff167fb9144c96c86541f6fa89c9f2f02495cccf4b08cd6643e26d34ee00aa586558a860405160405180910390a380915050919050565b6040518060400160405280600581526020017f312e302e3000000000000000000000000000000000000000000000000000000081525081565b6107b4610fdf565b80600990816107c3919061264e565b5050565b60006107d282610ce6565b9050919050565b60008073ffffffffffffffffffffffffffffffffffffffff168273ffffffffffffffffffffffffffffffffffffffff160361084c5760006040517f89c62b640000000000000000000000000000000000000000000000000000000081526004016108439190611f15565b60405180910390fd5b600360008373ffffffffffffffffffffffffffffffffffffffff1673ffffffffffffffffffffffffffffffffffffffff168152602001908152602001600020549050919050565b61089b610fdf565b6108a560006110e0565b565b6000600760009054906101000a900473ffffffffffffffffffffffffffffffffffffffff16905090565b6060600180546108e0906123c3565b80601f016020809104026020016040519081016040528092919081815260200182805461090c906123c3565b80156109595780601f1061092e57610100808354040283529160200191610959565b820191906000526020600020905b81548152906001019060200180831161093c57829003601f168201915b5050505050905090565b61097561096e610dab565b83836111a6565b5050565b61098484848461053d565b61099861098f610dab565b85858585611315565b50505050565b6040518060400160405280600881526020017f456475436861696e00000000000000000000000000000000000000000000000081525081565b60606109e282610ce6565b506000600660008481526020019081526020016000208054610a03906123c3565b80601f0160208091040260200160405190810160405280929190818152602001828054610a2f906123c3565b8015610a7c5780601f10610a5157610100808354040283529160200191610a7c565b820191906000526020600020905b815481529060010190602001808311610a5f57829003601f168201915b505050505090506000610a8d6114c6565b90506000815103610aa2578192505050610ae5565b600082511115610ad7578082604051602001610abf92919061275c565b60405160208183030381529060405292505050610ae5565b610ae084611558565b925050505b919050565b6000600560008473ffffffffffffffffffffffffffffffffffffffff1673ffffffffffffffffffffffffffffffffffffffff16815260200190815260200160002060008373ffffffffffffffffffffffffffffffffffffffff1673ffffffffffffffffffffffffffffffffffffffff16815260200190815260200160002060009054906101000a900460ff16905092915050565b610b86610fdf565b600073ffffffffffffffffffffffffffffffffffffffff168173ffffffffffffffffffffffffffffffffffffffff1603610bf85760006040517f1e4fbdf7000000000000000000000000000000000000000000000000000000008152600401610bef9190611f15565b60405180910390fd5b610c01816110e0565b50565b60007f80ac58cd000000000000000000000000000000000000000000000000000000007bffffffffffffffffffffffffffffffffffffffffffffffffffffffff1916827bffffffffffffffffffffffffffffffffffffffffffffffffffffffff19161480610ccf57507f5b5e139f000000000000000000000000000000000000000000000000000000007bffffffffffffffffffffffffffffffffffffffffffffffffffffffff1916827bffffffffffffffffffffffffffffffffffffffffffffffffffffffff1916145b80610cdf5750610cde826115c1565b5b9050919050565b600080610cf28361162b565b9050600073ffffffffffffffffffffffffffffffffffffffff168173ffffffffffffffffffffffffffffffffffffffff1603610d6557826040517f7e273289000000000000000000000000000000000000000000000000000000008152600401610d5c9190611fab565b60405180910390fd5b80915050919050565b60006004600083815260200190815260200160002060009054906101000a900473ffffffffffffffffffffffffffffffffffffffff169050919050565b600033905090565b610dc08383836001611668565b505050565b600080610dd18461162b565b9050600073ffffffffffffffffffffffffffffffffffffffff168373ffffffffffffffffffffffffffffffffffffffff1614610e1357610e1281848661182d565b5b600073ffffffffffffffffffffffffffffffffffffffff168173ffffffffffffffffffffffffffffffffffffffff1614610ea457610e55600085600080611668565b6001600360008373ffffffffffffffffffffffffffffffffffffffff1673ffffffffffffffffffffffffffffffffffffffff168152602001908152602001600020600082825403925050819055505b600073ffffffffffffffffffffffffffffffffffffffff168573ffffffffffffffffffffffffffffffffffffffff1614610f27576001600360008773ffffffffffffffffffffffffffffffffffffffff1673ffffffffffffffffffffffffffffffffffffffff168152602001908152602001600020600082825401925050819055505b846002600086815260200190815260200160002060006101000a81548173ffffffffffffffffffffffffffffffffffffffff021916908373ffffffffffffffffffffffffffffffffffffffff160217905550838573ffffffffffffffffffffffffffffffffffffffff168273ffffffffffffffffffffffffffffffffffffffff167fddf252ad1be2c89b69c2b068fc378daa952ba7f163c4a11628f55a4df523b3ef60405160405180910390a4809150509392505050565b610fe7610dab565b73ffffffffffffffffffffffffffffffffffffffff166110056108a7565b73ffffffffffffffffffffffffffffffffffffffff161461106457611028610dab565b6040517f118cdaa700000000000000000000000000000000000000000000000000000000815260040161105b9190611f15565b60405180910390fd5b565b6110808282604051806020016040528060008152506118f1565b5050565b806006600084815260200190815260200160002090816110a4919061264e565b507ff8e1a15aba9398e019f0b49df1a4fde98ee17ae345cb5f6b5e2c27f5033e8ce7826040516110d49190611fab565b60405180910390a15050565b6000600760009054906101000a900473ffffffffffffffffffffffffffffffffffffffff16905081600760006101000a81548173ffffffffffffffffffffffffffffffffffffffff021916908373ffffffffffffffffffffffffffffffffffffffff1602179055508173ffffffffffffffffffffffffffffffffffffffff168173ffffffffffffffffffffffffffffffffffffffff167f8be0079c531659141344cd1fd0a4f28419497f9722a3daafe3b4186f6b6457e060405160405180910390a35050565b600073ffffffffffffffffffffffffffffffffffffffff168273ffffffffffffffffffffffffffffffffffffffff160361121757816040517f5b08ba1800000000000000000000000000000000000000000000000000000000815260040161120e9190611f15565b60405180910390fd5b80600560008573ffffffffffffffffffffffffffffffffffffffff1673ffffffffffffffffffffffffffffffffffffffff16815260200190815260200160002060008473ffffffffffffffffffffffffffffffffffffffff1673ffffffffffffffffffffffffffffffffffffffff16815260200190815260200160002060006101000a81548160ff0219169083151502179055508173ffffffffffffffffffffffffffffffffffffffff168373ffffffffffffffffffffffffffffffffffffffff167f17307eab39ab6107e8899845ad3d59bd9653f200f220920489ca2b5937696c31836040516113089190611da4565b60405180910390a3505050565b60008373ffffffffffffffffffffffffffffffffffffffff163b11156114bf578273ffffffffffffffffffffffffffffffffffffffff1663150b7a02868685856040518563ffffffff1660e01b815260040161137494939291906127d5565b6020604051808303816000875af19250505080156113b057506040513d601f19601f820116820180604052508101906113ad9190612836565b60015b611434573d80600081146113e0576040519150601f19603f3d011682016040523d82523d6000602084013e6113e5565b606091505b50600081510361142c57836040517f64a0ae920000000000000000000000000000000000000000000000000000000081526004016114239190611f15565b60405180910390fd5b805181602001fd5b63150b7a0260e01b7bffffffffffffffffffffffffffffffffffffffffffffffffffffffff1916817bffffffffffffffffffffffffffffffffffffffffffffffffffffffff1916146114bd57836040517f64a0ae920000000000000000000000000000000000000000000000000000000081526004016114b49190611f15565b60405180910390fd5b505b5050505050565b6060600980546114d5906123c3565b80601f0160208091040260200160405190810160405280929190818152602001828054611501906123c3565b801561154e5780601f106115235761010080835404028352916020019161154e565b820191906000526020600020905b81548152906001019060200180831161153157829003601f168201915b5050505050905090565b606061156382610ce6565b50600061156e6114c6565b9050600081511161158e57604051806020016040528060008152506115b9565b8061159884611915565b6040516020016115a992919061275c565b6040516020818303038152906040525b915050919050565b60007f01ffc9a7000000000000000000000000000000000000000000000000000000007bffffffffffffffffffffffffffffffffffffffffffffffffffffffff1916827bffffffffffffffffffffffffffffffffffffffffffffffffffffffff1916149050919050565b60006002600083815260200190815260200160002060009054906101000a900473ffffffffffffffffffffffffffffffffffffffff169050919050565b80806116a15750600073ffffffffffffffffffffffffffffffffffffffff168273ffffffffffffffffffffffffffffffffffffffff1614155b156117d55760006116b184610ce6565b9050600073ffffffffffffffffffffffffffffffffffffffff168373ffffffffffffffffffffffffffffffffffffffff161415801561171c57508273ffffffffffffffffffffffffffffffffffffffff168173ffffffffffffffffffffffffffffffffffffffff1614155b801561172f575061172d8184610aea565b155b1561177157826040517fa9fbf51f0000000000000000000000000000000000000000000000000000000081526004016117689190611f15565b60405180910390fd5b81156117d357838573ffffffffffffffffffffffffffffffffffffffff168273ffffffffffffffffffffffffffffffffffffffff167f8c5be1e5ebec7d5bd14f71427d1e84f3dd0314c0f7b2291e5b200ac8c7c3b92560405160405180910390a45b505b836004600085815260200190815260200160002060006101000a81548173ffffffffffffffffffffffffffffffffffffffff021916908373ffffffffffffffffffffffffffffffffffffffff16021790555050505050565b6118388383836119e3565b6118ec57600073ffffffffffffffffffffffffffffffffffffffff168373ffffffffffffffffffffffffffffffffffffffff16036118ad57806040517f7e2732890000000000000000000000000000000000000000000000000000000081526004016118a49190611fab565b60405180910390fd5b81816040517f177e802f0000000000000000000000000000000000000000000000000000000081526004016118e3929190612863565b60405180910390fd5b505050565b6118fb8383611aa4565b611910611906610dab565b6000858585611315565b505050565b60606000600161192484611b9d565b01905060008167ffffffffffffffff81111561194357611942612050565b5b6040519080825280601f01601f1916602001820160405280156119755781602001600182028036833780820191505090505b509050600082602001820190505b6001156119d8578080600190039150507f3031323334353637383961626364656600000000000000000000000000000000600a86061a8153600a85816119cc576119cb61288c565b5b04945060008503611983575b819350505050919050565b60008073ffffffffffffffffffffffffffffffffffffffff168373ffffffffffffffffffffffffffffffffffffffff1614158015611a9b57508273ffffffffffffffffffffffffffffffffffffffff168473ffffffffffffffffffffffffffffffffffffffff161480611a5c5750611a5b8484610aea565b5b80611a9a57508273ffffffffffffffffffffffffffffffffffffffff16611a8283610d6e565b73ffffffffffffffffffffffffffffffffffffffff16145b5b90509392505050565b600073ffffffffffffffffffffffffffffffffffffffff168273ffffffffffffffffffffffffffffffffffffffff1603611b165760006040517f64a0ae92000000000000000000000000000000000000000000000000000000008152600401611b0d9190611f15565b60405180910390fd5b6000611b2483836000610dc5565b9050600073ffffffffffffffffffffffffffffffffffffffff168173ffffffffffffffffffffffffffffffffffffffff1614611b985760006040517f73c6ac6e000000000000000000000000000000000000000000000000000000008152600401611b8f9190611f15565b60405180910390fd5b505050565b600080600090507a184f03e93ff9f4daa797ed6e38ed64bf6a1f0100000000000000008310611bfb577a184f03e93ff9f4daa797ed6e38ed64bf6a1f0100000000000000008381611bf157611bf061288c565b5b0492506040810190505b6d04ee2d6d415b85acef81000000008310611c38576d04ee2d6d415b85acef81000000008381611c2e57611c2d61288c565b5b0492506020810190505b662386f26fc100008310611c6757662386f26fc100008381611c5d57611c5c61288c565b5b0492506010810190505b6305f5e1008310611c90576305f5e1008381611c8657611c8561288c565b5b0492506008810190505b6127108310611cb5576127108381611cab57611caa61288c565b5b0492506004810190505b60648310611cd85760648381611cce57611ccd61288c565b5b0492506002810190505b600a8310611ce7576001810190505b80915050919050565b6000604051905090565b600080fd5b600080fd5b60007fffffffff0000000000000000000000000000000000000000000000000000000082169050919050565b611d3981611d04565b8114611d4457600080fd5b50565b600081359050611d5681611d30565b92915050565b600060208284031215611d7257611d71611cfa565b5b6000611d8084828501611d47565b91505092915050565b60008115159050919050565b611d9e81611d89565b82525050565b6000602082019050611db96000830184611d95565b92915050565b600081519050919050565b600082825260208201905092915050565b60005b83811015611df9578082015181840152602081019050611dde565b60008484015250505050565b6000601f19601f8301169050919050565b6000611e2182611dbf565b611e2b8185611dca565b9350611e3b818560208601611ddb565b611e4481611e05565b840191505092915050565b60006020820190508181036000830152611e698184611e16565b905092915050565b6000819050919050565b611e8481611e71565b8114611e8f57600080fd5b50565b600081359050611ea181611e7b565b92915050565b600060208284031215611ebd57611ebc611cfa565b5b6000611ecb84828501611e92565b91505092915050565b600073ffffffffffffffffffffffffffffffffffffffff82169050919050565b6000611eff82611ed4565b9050919050565b611f0f81611ef4565b82525050565b6000602082019050611f2a6000830184611f06565b92915050565b611f3981611ef4565b8114611f4457600080fd5b50565b600081359050611f5681611f30565b92915050565b60008060408385031215611f7357611f72611cfa565b5b6000611f8185828601611f47565b9250506020611f9285828601611e92565b9150509250929050565b611fa581611e71565b82525050565b6000602082019050611fc06000830184611f9c565b92915050565b600080600060608486031215611fdf57611fde611cfa565b5b6000611fed86828701611f47565b9350506020611ffe86828701611f47565b925050604061200f86828701611e92565b9150509250925092565b60006020828403121561202f5761202e611cfa565b5b600061203d84828501611f47565b91505092915050565b600080fd5b600080fd5b7f4e487b7100000000000000000000000000000000000000000000000000000000600052604160045260246000fd5b61208882611e05565b810181811067ffffffffffffffff821117156120a7576120a6612050565b5b80604052505050565b60006120ba611cf0565b90506120c6828261207f565b919050565b600067ffffffffffffffff8211156120e6576120e5612050565b5b6120ef82611e05565b9050602081019050919050565b82818337600083830152505050565b600061211e612119846120cb565b6120b0565b90508281526020810184848401111561213a5761213961204b565b5b6121458482856120fc565b509392505050565b600082601f83011261216257612161612046565b5b813561217284826020860161210b565b91505092915050565b60006020828403121561219157612190611cfa565b5b600082013567ffffffffffffffff8111156121af576121ae611cff565b5b6121bb8482850161214d565b91505092915050565b6121cd81611d89565b81146121d857600080fd5b50565b6000813590506121ea816121c4565b92915050565b6000806040838503121561220757612206611cfa565b5b600061221585828601611f47565b9250506020612226858286016121db565b9150509250929050565b600067ffffffffffffffff82111561224b5761224a612050565b5b61225482611e05565b9050602081019050919050565b600061227461226f84612230565b6120b0565b9050828152602081018484840111156122905761228f61204b565b5b61229b8482856120fc565b509392505050565b600082601f8301126122b8576122b7612046565b5b81356122c8848260208601612261565b91505092915050565b600080600080608085870312156122eb576122ea611cfa565b5b60006122f987828801611f47565b945050602061230a87828801611f47565b935050604061231b87828801611e92565b925050606085013567ffffffffffffffff81111561233c5761233b611cff565b5b612348878288016122a3565b91505092959194509250565b6000806040838503121561236b5761236a611cfa565b5b600061237985828601611f47565b925050602061238a85828601611f47565b9150509250929050565b7f4e487b7100000000000000000000000000000000000000000000000000000000600052602260045260246000fd5b600060028204905060018216806123db57607f821691505b6020821081036123ee576123ed612394565b5b50919050565b60006060820190506124096000830186611f06565b6124166020830185611f9c565b6124236040830184611f06565b949350505050565b7f4e487b7100000000000000000000000000000000000000000000000000000000600052601160045260246000fd5b600061246582611e71565b91507fffffffffffffffffffffffffffffffffffffffffffffffffffffffffffffffff82036124975761249661242b565b5b600182019050919050565b60008190508160005260206000209050919050565b60006020601f8301049050919050565b600082821b905092915050565b6000600883026125047fffffffffffffffffffffffffffffffffffffffffffffffffffffffffffffffff826124c7565b61250e86836124c7565b95508019841693508086168417925050509392505050565b6000819050919050565b600061254b61254661254184611e71565b612526565b611e71565b9050919050565b6000819050919050565b61256583612530565b61257961257182612552565b8484546124d4565b825550505050565b600090565b61258e612581565b61259981848461255c565b505050565b5b818110156125bd576125b2600082612586565b60018101905061259f565b5050565b601f821115612602576125d3816124a2565b6125dc846124b7565b810160208510156125eb578190505b6125ff6125f7856124b7565b83018261259e565b50505b505050565b600082821c905092915050565b600061262560001984600802612607565b1980831691505092915050565b600061263e8383612614565b9150826002028217905092915050565b61265782611dbf565b67ffffffffffffffff8111156126705761266f612050565b5b61267a82546123c3565b6126858282856125c1565b600060209050601f8311600181146126b857600084156126a6578287015190505b6126b08582612632565b865550612718565b601f1984166126c6866124a2565b60005b828110156126ee578489015182556001820191506020850194506020810190506126c9565b8683101561270b5784890151612707601f891682612614565b8355505b6001600288020188555050505b505050505050565b600081905092915050565b600061273682611dbf565b6127408185612720565b9350612750818560208601611ddb565b80840191505092915050565b6000612768828561272b565b9150612774828461272b565b91508190509392505050565b600081519050919050565b600082825260208201905092915050565b60006127a782612780565b6127b1818561278b565b93506127c1818560208601611ddb565b6127ca81611e05565b840191505092915050565b60006080820190506127ea6000830187611f06565b6127f76020830186611f06565b6128046040830185611f9c565b8181036060830152612816818461279c565b905095945050505050565b60008151905061283081611d30565b92915050565b60006020828403121561284c5761284b611cfa565b5b600061285a84828501612821565b91505092915050565b60006040820190506128786000830185611f06565b6128856020830184611f9c565b9392505050565b7f4e487b7100000000000000000000000000000000000000000000000000000000600052601260045260246000fdfea2646970667358221220436ec0acf204dada5b5833323ec0846ae370912b24dbc7667819bde5547ee58064736f6c634300081c0033",
  "linkReferences": {},
  "deployedLinkReferences": {}
}